{
  "_format": "hh-sol-artifact-1",
  "contractName": "UniversityToken",
  "sourceName": "contracts/UniversityToken.sol",
  "abi": [
    {
      "inputs": [
        {
          "internalType": "address",
          "name": "initialOwner",
          "type": "address"
        }
      ],
      "stateMutability": "nonpayable",
      "type": "constructor"
    },
    {
      "inputs": [
        {
          "internalType": "address",
          "name": "spender",
          "type": "address"
        },
        {
          "internalType": "uint256",
          "name": "allowance",
          "type": "uint256"
        },
        {
          "internalType": "uint256",
          "name": "needed",
          "type": "uint256"
        }
      ],
      "name": "ERC20InsufficientAllowance",
      "type": "error"
    },
    {
      "inputs": [
        {
          "internalType": "address",
          "name": "sender",
          "type": "address"
        },
        {
          "internalType": "uint256",
          "name": "balance",
          "type": "uint256"
        },
        {
          "internalType": "uint256",
          "name": "needed",
          "type": "uint256"
        }
      ],
      "name": "ERC20InsufficientBalance",
      "type": "error"
    },
    {
      "inputs": [
        {
          "internalType": "address",
          "name": "approver",
          "type": "address"
        }
      ],
      "name": "ERC20InvalidApprover",
      "type": "error"
    },
    {
      "inputs": [
        {
          "internalType": "address",
          "name": "receiver",
          "type": "address"
        }
      ],
      "name": "ERC20InvalidReceiver",
      "type": "error"
    },
    {
      "inputs": [
        {
          "internalType": "address",
          "name": "sender",
          "type": "address"
        }
      ],
      "name": "ERC20InvalidSender",
      "type": "error"
    },
    {
      "inputs": [
        {
          "internalType": "address",
          "name": "spender",
          "type": "address"
        }
      ],
      "name": "ERC20InvalidSpender",
      "type": "error"
    },
    {
      "anonymous": false,
      "inputs": [
        {
          "indexed": true,
          "internalType": "address",
          "name": "owner",
          "type": "address"
        },
        {
          "indexed": true,
          "internalType": "address",
          "name": "spender",
          "type": "address"
        },
        {
          "indexed": false,
          "internalType": "uint256",
          "name": "value",
          "type": "uint256"
        }
      ],
      "name": "Approval",
      "type": "event"
    },
    {
      "anonymous": false,
      "inputs": [
        {
          "indexed": true,
          "internalType": "address",
          "name": "from",
          "type": "address"
        },
        {
          "indexed": true,
          "internalType": "address",
          "name": "to",
          "type": "address"
        },
        {
          "indexed": false,
          "internalType": "uint256",
          "name": "value",
          "type": "uint256"
        }
      ],
      "name": "Transfer",
      "type": "event"
    },
    {
      "anonymous": false,
      "inputs": [
        {
          "indexed": true,
          "internalType": "address",
          "name": "sender",
          "type": "address"
        },
        {
          "indexed": true,
          "internalType": "address",
          "name": "receiver",
          "type": "address"
        },
        {
          "indexed": false,
          "internalType": "uint256",
          "name": "amount",
          "type": "uint256"
        }
      ],
      "name": "TransferLogged",
      "type": "event"
    },
    {
      "inputs": [
        {
          "internalType": "address",
          "name": "owner",
          "type": "address"
        },
        {
          "internalType": "address",
          "name": "spender",
          "type": "address"
        }
      ],
      "name": "allowance",
      "outputs": [
        {
          "internalType": "uint256",
          "name": "",
          "type": "uint256"
        }
      ],
      "stateMutability": "view",
      "type": "function"
    },
    {
      "inputs": [
        {
          "internalType": "address",
          "name": "spender",
          "type": "address"
        },
        {
          "internalType": "uint256",
          "name": "value",
          "type": "uint256"
        }
      ],
      "name": "approve",
      "outputs": [
        {
          "internalType": "bool",
          "name": "",
          "type": "bool"
        }
      ],
      "stateMutability": "nonpayable",
      "type": "function"
    },
    {
      "inputs": [
        {
          "internalType": "address",
          "name": "account",
          "type": "address"
        }
      ],
      "name": "balanceOf",
      "outputs": [
        {
          "internalType": "uint256",
          "name": "",
          "type": "uint256"
        }
      ],
      "stateMutability": "view",
      "type": "function"
    },
    {
      "inputs": [],
      "name": "decimals",
      "outputs": [
        {
          "internalType": "uint8",
          "name": "",
          "type": "uint8"
        }
      ],
      "stateMutability": "view",
      "type": "function"
    },
    {
      "inputs": [],
      "name": "getLatestTimestamp",
      "outputs": [
        {
          "internalType": "string",
          "name": "",
          "type": "string"
        }
      ],
      "stateMutability": "view",
      "type": "function"
    },
    {
      "inputs": [
        {
          "internalType": "uint256",
          "name": "index",
          "type": "uint256"
        }
      ],
      "name": "getReceiver",
      "outputs": [
        {
          "internalType": "address",
          "name": "",
          "type": "address"
        }
      ],
      "stateMutability": "view",
      "type": "function"
    },
    {
      "inputs": [
        {
          "internalType": "uint256",
          "name": "index",
          "type": "uint256"
        }
      ],
      "name": "getSender",
      "outputs": [
        {
          "internalType": "address",
          "name": "",
          "type": "address"
        }
      ],
      "stateMutability": "view",
      "type": "function"
    },
    {
      "inputs": [
        {
          "internalType": "uint256",
          "name": "index",
          "type": "uint256"
        }
      ],
      "name": "getTransaction",
      "outputs": [
        {
          "internalType": "address",
          "name": "sender",
          "type": "address"
        },
        {
          "internalType": "address",
          "name": "receiver",
          "type": "address"
        },
        {
          "internalType": "uint256",
          "name": "amount",
          "type": "uint256"
        },
        {
          "internalType": "uint256",
          "name": "timestamp",
          "type": "uint256"
        }
      ],
      "stateMutability": "view",
      "type": "function"
    },
    {
      "inputs": [],
      "name": "name",
      "outputs": [
        {
          "internalType": "string",
          "name": "",
          "type": "string"
        }
      ],
      "stateMutability": "view",
      "type": "function"
    },
    {
      "inputs": [],
      "name": "owner",
      "outputs": [
        {
          "internalType": "address",
          "name": "",
          "type": "address"
        }
      ],
      "stateMutability": "view",
      "type": "function"
    },
    {
      "inputs": [],
      "name": "symbol",
      "outputs": [
        {
          "internalType": "string",
          "name": "",
          "type": "string"
        }
      ],
      "stateMutability": "view",
      "type": "function"
    },
    {
      "inputs": [],
      "name": "totalSupply",
      "outputs": [
        {
          "internalType": "uint256",
          "name": "",
          "type": "uint256"
        }
      ],
      "stateMutability": "view",
      "type": "function"
    },
    {
      "inputs": [
        {
          "internalType": "uint256",
          "name": "",
          "type": "uint256"
        }
      ],
      "name": "transactions",
      "outputs": [
        {
          "internalType": "address",
          "name": "sender",
          "type": "address"
        },
        {
          "internalType": "address",
          "name": "receiver",
          "type": "address"
        },
        {
          "internalType": "uint256",
          "name": "amount",
          "type": "uint256"
        },
        {
          "internalType": "uint256",
          "name": "timestamp",
          "type": "uint256"
        }
      ],
      "stateMutability": "view",
      "type": "function"
    },
    {
      "inputs": [
        {
          "internalType": "address",
          "name": "recipient",
          "type": "address"
        },
        {
          "internalType": "uint256",
          "name": "amount",
          "type": "uint256"
        }
      ],
      "name": "transfer",
      "outputs": [
        {
          "internalType": "bool",
          "name": "",
          "type": "bool"
        }
      ],
      "stateMutability": "nonpayable",
      "type": "function"
    },
    {
      "inputs": [
        {
          "internalType": "address",
          "name": "from",
          "type": "address"
        },
        {
          "internalType": "address",
          "name": "to",
          "type": "address"
        },
        {
          "internalType": "uint256",
          "name": "value",
          "type": "uint256"
        }
      ],
      "name": "transferFrom",
      "outputs": [
        {
          "internalType": "bool",
          "name": "",
          "type": "bool"
        }
      ],
      "stateMutability": "nonpayable",
      "type": "function"
    }
  ],
  "bytecode": "0x608060405234801561001057600080fd5b506040516124d53803806124d583398181016040528101906100329190610456565b6040518060400160405280600f81526020017f556e6976657273697479546f6b656e00000000000000000000000000000000008152506040518060400160405280600381526020017f55544b000000000000000000000000000000000000000000000000000000000081525081600390816100ad91906106d3565b5080600490816100bd91906106d3565b50505080600560006101000a81548173ffffffffffffffffffffffffffffffffffffffff021916908373ffffffffffffffffffffffffffffffffffffffff1602179055506101378161011361013d60201b60201c565b600a61011f9190610914565b6107d061012c919061095f565b61014660201b60201c565b50610a60565b60006012905090565b600073ffffffffffffffffffffffffffffffffffffffff168273ffffffffffffffffffffffffffffffffffffffff16036101b85760006040517fec442f050000000000000000000000000000000000000000000000000000000081526004016101af91906109b0565b60405180910390fd5b6101ca600083836101ce60201b60201c565b5050565b600073ffffffffffffffffffffffffffffffffffffffff168373ffffffffffffffffffffffffffffffffffffffff160361022057806002600082825461021491906109cb565b925050819055506102f3565b60008060008573ffffffffffffffffffffffffffffffffffffffff1673ffffffffffffffffffffffffffffffffffffffff168152602001908152602001600020549050818110156102ac578381836040517fe450d38c0000000000000000000000000000000000000000000000000000000081526004016102a393929190610a0e565b60405180910390fd5b8181036000808673ffffffffffffffffffffffffffffffffffffffff1673ffffffffffffffffffffffffffffffffffffffff16815260200190815260200160002081905550505b600073ffffffffffffffffffffffffffffffffffffffff168273ffffffffffffffffffffffffffffffffffffffff160361033c5780600260008282540392505081905550610389565b806000808473ffffffffffffffffffffffffffffffffffffffff1673ffffffffffffffffffffffffffffffffffffffff168152602001908152602001600020600082825401925050819055505b8173ffffffffffffffffffffffffffffffffffffffff168373ffffffffffffffffffffffffffffffffffffffff167fddf252ad1be2c89b69c2b068fc378daa952ba7f163c4a11628f55a4df523b3ef836040516103e69190610a45565b60405180910390a3505050565b600080fd5b600073ffffffffffffffffffffffffffffffffffffffff82169050919050565b6000610423826103f8565b9050919050565b61043381610418565b811461043e57600080fd5b50565b6000815190506104508161042a565b92915050565b60006020828403121561046c5761046b6103f3565b5b600061047a84828501610441565b91505092915050565b600081519050919050565b7f4e487b7100000000000000000000000000000000000000000000000000000000600052604160045260246000fd5b7f4e487b7100000000000000000000000000000000000000000000000000000000600052602260045260246000fd5b6000600282049050600182168061050457607f821691505b602082108103610517576105166104bd565b5b50919050565b60008190508160005260206000209050919050565b60006020601f8301049050919050565b600082821b905092915050565b60006008830261057f7fffffffffffffffffffffffffffffffffffffffffffffffffffffffffffffffff82610542565b6105898683610542565b95508019841693508086168417925050509392505050565b6000819050919050565b6000819050919050565b60006105d06105cb6105c6846105a1565b6105ab565b6105a1565b9050919050565b6000819050919050565b6105ea836105b5565b6105fe6105f6826105d7565b84845461054f565b825550505050565b600090565b610613610606565b61061e8184846105e1565b505050565b5b818110156106425761063760008261060b565b600181019050610624565b5050565b601f821115610687576106588161051d565b61066184610532565b81016020851015610670578190505b61068461067c85610532565b830182610623565b50505b505050565b600082821c905092915050565b60006106aa6000198460080261068c565b1980831691505092915050565b60006106c38383610699565b9150826002028217905092915050565b6106dc82610483565b67ffffffffffffffff8111156106f5576106f461048e565b5b6106ff82546104ec565b61070a828285610646565b600060209050601f83116001811461073d576000841561072b578287015190505b61073585826106b7565b86555061079d565b601f19841661074b8661051d565b60005b828110156107735784890151825560018201915060208501945060208101905061074e565b86831015610790578489015161078c601f891682610699565b8355505b6001600288020188555050505b505050505050565b7f4e487b7100000000000000000000000000000000000000000000000000000000600052601160045260246000fd5b60008160011c9050919050565b6000808291508390505b600185111561082b57808604811115610807576108066107a5565b5b60018516156108165780820291505b8081029050610824856107d4565b94506107eb565b94509492505050565b6000826108445760019050610900565b816108525760009050610900565b81600181146108685760028114610872576108a1565b6001915050610900565b60ff841115610884576108836107a5565b5b8360020a91508482111561089b5761089a6107a5565b5b50610900565b5060208310610133831016604e8410600b84101617156108d65782820a9050838111156108d1576108d06107a5565b5b610900565b6108e384848460016107e1565b925090508184048111156108fa576108f96107a5565b5b81810290505b9392505050565b600060ff82169050919050565b600061091f826105a1565b915061092a83610907565b92506109577fffffffffffffffffffffffffffffffffffffffffffffffffffffffffffffffff8484610834565b905092915050565b600061096a826105a1565b9150610975836105a1565b9250828202610983816105a1565b9150828204841483151761099a576109996107a5565b5b5092915050565b6109aa81610418565b82525050565b60006020820190506109c560008301846109a1565b92915050565b60006109d6826105a1565b91506109e1836105a1565b92508282019050808211156109f9576109f86107a5565b5b92915050565b610a08816105a1565b82525050565b6000606082019050610a2360008301866109a1565b610a3060208301856109ff565b610a3d60408301846109ff565b949350505050565b6000602082019050610a5a60008301846109ff565b92915050565b611a6680610a6f6000396000f3fe608060405234801561001057600080fd5b50600436106100f55760003560e01c80638da5cb5b11610097578063b971302a11610066578063b971302a146102b6578063dd62ed3e146102e6578063f43b52cb14610316578063f4d7649914610334576100f5565b80638da5cb5b1461021757806395d89b41146102355780639ace38c214610253578063a9059cbb14610286576100f5565b806323b872dd116100d357806323b872dd14610166578063313ce5671461019657806333ea3dc8146101b457806370a08231146101e7576100f5565b806306fdde03146100fa578063095ea7b31461011857806318160ddd14610148575b600080fd5b610102610364565b60405161010f9190611315565b60405180910390f35b610132600480360381019061012d91906113d0565b6103f6565b60405161013f919061142b565b60405180910390f35b610150610419565b60405161015d9190611455565b60405180910390f35b610180600480360381019061017b9190611470565b610423565b60405161018d919061142b565b60405180910390f35b61019e610452565b6040516101ab91906114df565b60405180910390f35b6101ce60048036038101906101c991906114fa565b61045b565b6040516101de9493929190611536565b60405180910390f35b61020160048036038101906101fc919061157b565b6105bd565b60405161020e9190611455565b60405180910390f35b61021f610605565b60405161022c91906115a8565b60405180910390f35b61023d61062b565b60405161024a9190611315565b60405180910390f35b61026d600480360381019061026891906114fa565b6106bd565b60405161027d9493929190611536565b60405180910390f35b6102a0600480360381019061029b91906113d0565b61073d565b6040516102ad919061142b565b60405180910390f35b6102d060048036038101906102cb91906114fa565b6108d5565b6040516102dd91906115a8565b60405180910390f35b61030060048036038101906102fb91906115c3565b61096b565b60405161030d9190611455565b60405180910390f35b61031e6109f2565b60405161032b9190611315565b60405180910390f35b61034e600480360381019061034991906114fa565b610aa5565b60405161035b91906115a8565b60405180910390f35b60606003805461037390611632565b80601f016020809104026020016040519081016040528092919081815260200182805461039f90611632565b80156103ec5780601f106103c1576101008083540402835291602001916103ec565b820191906000526020600020905b8154815290600101906020018083116103cf57829003601f168201915b5050505050905090565b600080610401610b3b565b905061040e818585610b43565b600191505092915050565b6000600254905090565b60008061042e610b3b565b905061043b858285610b55565b610446858585610bea565b60019150509392505050565b60006012905090565b60008060008060068054905085106104a8576040517f08c379a000000000000000000000000000000000000000000000000000000000815260040161049f906116af565b60405180910390fd5b6000600686815481106104be576104bd6116cf565b5b90600052602060002090600402016040518060800160405290816000820160009054906101000a900473ffffffffffffffffffffffffffffffffffffffff1673ffffffffffffffffffffffffffffffffffffffff1673ffffffffffffffffffffffffffffffffffffffff1681526020016001820160009054906101000a900473ffffffffffffffffffffffffffffffffffffffff1673ffffffffffffffffffffffffffffffffffffffff1673ffffffffffffffffffffffffffffffffffffffff16815260200160028201548152602001600382015481525050905080600001518160200151826040015183606001519450945094509450509193509193565b60008060008373ffffffffffffffffffffffffffffffffffffffff1673ffffffffffffffffffffffffffffffffffffffff168152602001908152602001600020549050919050565b600560009054906101000a900473ffffffffffffffffffffffffffffffffffffffff1681565b60606004805461063a90611632565b80601f016020809104026020016040519081016040528092919081815260200182805461066690611632565b80156106b35780601f10610688576101008083540402835291602001916106b3565b820191906000526020600020905b81548152906001019060200180831161069657829003601f168201915b5050505050905090565b600681815481106106cd57600080fd5b90600052602060002090600402016000915090508060000160009054906101000a900473ffffffffffffffffffffffffffffffffffffffff16908060010160009054906101000a900473ffffffffffffffffffffffffffffffffffffffff16908060020154908060030154905084565b60006107498383610cde565b50600660405180608001604052803373ffffffffffffffffffffffffffffffffffffffff1681526020018573ffffffffffffffffffffffffffffffffffffffff16815260200184815260200142815250908060018154018082558091505060019003906000526020600020906004020160009091909190915060008201518160000160006101000a81548173ffffffffffffffffffffffffffffffffffffffff021916908373ffffffffffffffffffffffffffffffffffffffff16021790555060208201518160010160006101000a81548173ffffffffffffffffffffffffffffffffffffffff021916908373ffffffffffffffffffffffffffffffffffffffff160217905550604082015181600201556060820151816003015550508273ffffffffffffffffffffffffffffffffffffffff163373ffffffffffffffffffffffffffffffffffffffff167fa7c684476b970fb0e59cfe85ddaa3ed988b161c3ac61d89aad0b9f97e74a57e5846040516108c39190611455565b60405180910390a36001905092915050565b6000600680549050821061091e576040517f08c379a0000000000000000000000000000000000000000000000000000000008152600401610915906116af565b60405180910390fd5b60068281548110610932576109316116cf565b5b906000526020600020906004020160000160009054906101000a900473ffffffffffffffffffffffffffffffffffffffff169050919050565b6000600160008473ffffffffffffffffffffffffffffffffffffffff1673ffffffffffffffffffffffffffffffffffffffff16815260200190815260200160002060008373ffffffffffffffffffffffffffffffffffffffff1673ffffffffffffffffffffffffffffffffffffffff16815260200190815260200160002054905092915050565b6060600060068054905011610a3c576040517f08c379a0000000000000000000000000000000000000000000000000000000008152600401610a339061174a565b60405180910390fd5b600060066001600680549050610a529190611799565b81548110610a6357610a626116cf565b5b9060005260206000209060040201600301549050610a8081610d01565b604051602001610a909190611855565b60405160208183030381529060405291505090565b60006006805490508210610aee576040517f08c379a0000000000000000000000000000000000000000000000000000000008152600401610ae5906116af565b60405180910390fd5b60068281548110610b0257610b016116cf565b5b906000526020600020906004020160010160009054906101000a900473ffffffffffffffffffffffffffffffffffffffff169050919050565b600033905090565b610b508383836001610e89565b505050565b6000610b61848461096b565b90507fffffffffffffffffffffffffffffffffffffffffffffffffffffffffffffffff811015610be45781811015610bd4578281836040517ffb8f41b2000000000000000000000000000000000000000000000000000000008152600401610bcb93929190611877565b60405180910390fd5b610be384848484036000610e89565b5b50505050565b600073ffffffffffffffffffffffffffffffffffffffff168373ffffffffffffffffffffffffffffffffffffffff1603610c5c5760006040517f96c6fd1e000000000000000000000000000000000000000000000000000000008152600401610c5391906115a8565b60405180910390fd5b600073ffffffffffffffffffffffffffffffffffffffff168273ffffffffffffffffffffffffffffffffffffffff1603610cce5760006040517fec442f05000000000000000000000000000000000000000000000000000000008152600401610cc591906115a8565b60405180910390fd5b610cd9838383611060565b505050565b600080610ce9610b3b565b9050610cf6818585610bea565b600191505092915050565b606060008203610d48576040518060400160405280600181526020017f30000000000000000000000000000000000000000000000000000000000000008152509050610e84565b600082905060005b60008214610d7a578080610d63906118ae565b915050600a82610d739190611925565b9150610d50565b60008167ffffffffffffffff811115610d9657610d95611956565b5b6040519080825280601f01601f191660200182016040528015610dc85781602001600182028036833780820191505090505b50905060008290505b60008614610e7c57600181610de69190611799565b90506000600a8088610df89190611925565b610e029190611985565b87610e0d9190611799565b6030610e1991906119c7565b905060008160f81b905080848481518110610e3757610e366116cf565b5b60200101907effffffffffffffffffffffffffffffffffffffffffffffffffffffffffffff1916908160001a905350600a88610e739190611925565b97505050610dd1565b819450505050505b919050565b600073ffffffffffffffffffffffffffffffffffffffff168473ffffffffffffffffffffffffffffffffffffffff1603610efb5760006040517fe602df05000000000000000000000000000000000000000000000000000000008152600401610ef291906115a8565b60405180910390fd5b600073ffffffffffffffffffffffffffffffffffffffff168373ffffffffffffffffffffffffffffffffffffffff1603610f6d5760006040517f94280d62000000000000000000000000000000000000000000000000000000008152600401610f6491906115a8565b60405180910390fd5b81600160008673ffffffffffffffffffffffffffffffffffffffff1673ffffffffffffffffffffffffffffffffffffffff16815260200190815260200160002060008573ffffffffffffffffffffffffffffffffffffffff1673ffffffffffffffffffffffffffffffffffffffff16815260200190815260200160002081905550801561105a578273ffffffffffffffffffffffffffffffffffffffff168473ffffffffffffffffffffffffffffffffffffffff167f8c5be1e5ebec7d5bd14f71427d1e84f3dd0314c0f7b2291e5b200ac8c7c3b925846040516110519190611455565b60405180910390a35b50505050565b600073ffffffffffffffffffffffffffffffffffffffff168373ffffffffffffffffffffffffffffffffffffffff16036110b25780600260008282546110a691906119fc565b92505081905550611185565b60008060008573ffffffffffffffffffffffffffffffffffffffff1673ffffffffffffffffffffffffffffffffffffffff1681526020019081526020016000205490508181101561113e578381836040517fe450d38c00000000000000000000000000000000000000000000000000000000815260040161113593929190611877565b60405180910390fd5b8181036000808673ffffffffffffffffffffffffffffffffffffffff1673ffffffffffffffffffffffffffffffffffffffff16815260200190815260200160002081905550505b600073ffffffffffffffffffffffffffffffffffffffff168273ffffffffffffffffffffffffffffffffffffffff16036111ce578060026000828254039250508190555061121b565b806000808473ffffffffffffffffffffffffffffffffffffffff1673ffffffffffffffffffffffffffffffffffffffff168152602001908152602001600020600082825401925050819055505b8173ffffffffffffffffffffffffffffffffffffffff168373ffffffffffffffffffffffffffffffffffffffff167fddf252ad1be2c89b69c2b068fc378daa952ba7f163c4a11628f55a4df523b3ef836040516112789190611455565b60405180910390a3505050565b600081519050919050565b600082825260208201905092915050565b60005b838110156112bf5780820151818401526020810190506112a4565b60008484015250505050565b6000601f19601f8301169050919050565b60006112e782611285565b6112f18185611290565b93506113018185602086016112a1565b61130a816112cb565b840191505092915050565b6000602082019050818103600083015261132f81846112dc565b905092915050565b600080fd5b600073ffffffffffffffffffffffffffffffffffffffff82169050919050565b60006113678261133c565b9050919050565b6113778161135c565b811461138257600080fd5b50565b6000813590506113948161136e565b92915050565b6000819050919050565b6113ad8161139a565b81146113b857600080fd5b50565b6000813590506113ca816113a4565b92915050565b600080604083850312156113e7576113e6611337565b5b60006113f585828601611385565b9250506020611406858286016113bb565b9150509250929050565b60008115159050919050565b61142581611410565b82525050565b6000602082019050611440600083018461141c565b92915050565b61144f8161139a565b82525050565b600060208201905061146a6000830184611446565b92915050565b60008060006060848603121561148957611488611337565b5b600061149786828701611385565b93505060206114a886828701611385565b92505060406114b9868287016113bb565b9150509250925092565b600060ff82169050919050565b6114d9816114c3565b82525050565b60006020820190506114f460008301846114d0565b92915050565b6000602082840312156115105761150f611337565b5b600061151e848285016113bb565b91505092915050565b6115308161135c565b82525050565b600060808201905061154b6000830187611527565b6115586020830186611527565b6115656040830185611446565b6115726060830184611446565b95945050505050565b60006020828403121561159157611590611337565b5b600061159f84828501611385565b91505092915050565b60006020820190506115bd6000830184611527565b92915050565b600080604083850312156115da576115d9611337565b5b60006115e885828601611385565b92505060206115f985828601611385565b9150509250929050565b7f4e487b7100000000000000000000000000000000000000000000000000000000600052602260045260246000fd5b6000600282049050600182168061164a57607f821691505b60208210810361165d5761165c611603565b5b50919050565b7f496e76616c6964207472616e73616374696f6e20696e6465782e000000000000600082015250565b6000611699601a83611290565b91506116a482611663565b602082019050919050565b600060208201905081810360008301526116c88161168c565b9050919050565b7f4e487b7100000000000000000000000000000000000000000000000000000000600052603260045260246000fd5b7f4e6f207472616e73616374696f6e73207965742e000000000000000000000000600082015250565b6000611734601483611290565b915061173f826116fe565b602082019050919050565b6000602082019050818103600083015261176381611727565b9050919050565b7f4e487b7100000000000000000000000000000000000000000000000000000000600052601160045260246000fd5b60006117a48261139a565b91506117af8361139a565b92508282039050818111156117c7576117c661176a565b5b92915050565b600081905092915050565b7f4c6174657374207472616e73616374696f6e2074696d657374616d703a200000600082015250565b600061180e601e836117cd565b9150611819826117d8565b601e82019050919050565b600061182f82611285565b61183981856117cd565b93506118498185602086016112a1565b80840191505092915050565b600061186082611801565b915061186c8284611824565b915081905092915050565b600060608201905061188c6000830186611527565b6118996020830185611446565b6118a66040830184611446565b949350505050565b60006118b98261139a565b91507fffffffffffffffffffffffffffffffffffffffffffffffffffffffffffffffff82036118eb576118ea61176a565b5b600182019050919050565b7f4e487b7100000000000000000000000000000000000000000000000000000000600052601260045260246000fd5b60006119308261139a565b915061193b8361139a565b92508261194b5761194a6118f6565b5b828204905092915050565b7f4e487b7100000000000000000000000000000000000000000000000000000000600052604160045260246000fd5b60006119908261139a565b915061199b8361139a565b92508282026119a98161139a565b915082820484148315176119c0576119bf61176a565b5b5092915050565b60006119d2826114c3565b91506119dd836114c3565b9250828201905060ff8111156119f6576119f561176a565b5b92915050565b6000611a078261139a565b9150611a128361139a565b9250828201905080821115611a2a57611a2961176a565b5b9291505056fea26469706673582212201df58244bf32106ae79fb3601e40135d898c498477d45c5360c17c4fa74bb41d64736f6c634300081c0033",
  "linkReferences": {},
  "deployedLinkReferences": {}
}